:100000000C945D000C9485000C9485000C94850084
:100010000C9485000C9485000C9485000C9485004C
:100020000C9485000C9485000C9485000C9485003C
:100030000C9485000C9485000C9485000C9485002C
:100040000C94EB020C9485000C9485000C948500B4
:100050000C9485000C9485000C9485000C9485000C
:100060000C9485000C94850000000008000201003B
:100070000003040700000000000000000000000072
:10008000250028002B0000000000240027002A0083
:10009000040404040404040402020202020203032E
:1000A0000303030301020408102040800102040836
:1000B0001020010204081020A60411241FBECFEF57
:1000C000D8E0DEBFCDBF11E0A0E0B1E0E2E7FDE0A7
:1000D00002C005900D92A233B107D9F721E0A2E347
:1000E000B1E001C01D92A335B207E1F710E0CDE504
:1000F000D0E004C02197FE010E94B106CC35D107A3
:10010000C9F70E9435030C94B7060C94000090E0E8
:10011000FC01EC55FF4F249180579F4FFC018491C7
:10012000882399F090E0880F991FFC01EA57FF4F50
:10013000A591B491FC01E458FF4F859194918FB73C
:10014000F894EC91E22BEC938FBF0895AF92BF929D
:10015000CF92DF92EF92FF920F931F93CF93DF9393
:100160006C017B018B01040F151FEB015E01AE18C2
:10017000BF08C017D10759F06991D601ED91FC91E4
:100180000190F081E02DC6010995892B79F7C50111
:10019000DF91CF911F910F91FF90EF90DF90CF9063
:1001A000BF90AF90089590E0FC01E859FF4F249173
:1001B000FC01EC55FF4F3491FC01E057FF4FE491F7
:1001C000EE23C9F0222339F0233001F1A8F42130C5
:1001D00019F1223029F1F0E0EE0FFF1FE458FF4F34
:1001E000A591B4918FB7F894EC91611126C0309528
:1001F0003E233C938FBF08952730A9F02830C9F0E3
:10020000243049F7809180008F7D03C08091800069
:100210008F7780938000DFCF84B58F7784BDDBCF6D
:1002200084B58F7DFBCF8091B0008F778093B00035
:10023000D2CF8091B0008F7DF9CF3E2BDACF3FB780
:10024000F8948091370190913801A0913901B091D3
:100250003A0126B5A89B05C02F3F19F00196A11DB4
:10026000B11D3FBFBA2FA92F982F8827BC01CD0100
:10027000620F711D811D911D42E0660F771F881F5F
:10028000991F4A95D1F70895089590E080E0089568
:10029000FC0101900020E9F73197AF01481B590B91
:1002A000BC018BE391E00C94A6008F929F92AF92D9
:1002B000BF920F931F93CF93DF93CDB7DEB7A19774
:1002C0000FB6F894DEBF0FBECDBF19A2423008F4BE
:1002D0004AE08E010F5D1F4F842E912CB12CA12C72
:1002E000A50194010E948F06E62FB901CA01EA30E8
:1002F000F4F4E05DD801EE938D01232B242B252B04
:1003000079F790E080E0109719F0CD010E94480144
:10031000A1960FB6F894DEBF0FBECDBFDF91CF918F
:100320001F910F91BF90AF909F908F900895E95CBF
:10033000E1CFCF93DF93EC0160E08E810E94D30088
:1003400061E08E810E94D30060E08E810E94D30024
:100350008BE891E00197F1F7DF91CF910895CF926B
:10036000DF92EF92FF920F931F93CF93DF936C0175
:100370007C0187E0E80EF11CD0E0C0E0062F10E021
:10038000B8010C2E02C0759567950A94E2F761706A
:10039000F70181917F010E94D3002196C430D105DD
:1003A00079F7C601DF91CF911F910F91FF90EF90E8
:1003B000DF90CF900C949901CF92DF92EF92FF9251
:1003C0000F931F93CF93DF93EC01F62E642F8C8154
:1003D0000E94D3008D818F3F19F060E00E94D3000E
:1003E0000F2D10E08F8584FF25C06E0187E0C80EB9
:1003F000D11CF12CE12CB8010E2C02C0759567952B
:100400000A94E2F76170F60181916F010E94D300B6
:10041000FFEFEF1AFF0A88E0E816F10461F7CE015A
:10042000DF91CF911F910F91FF90EF90DF90CF90D0
:100430000C949901B80184E0759567958A95E1F768
:10044000CE010E94AF016F2DCE01DF91CF911F91A0
:100450000F91FF90EF90DF90CF900C94AF0140E0B0
:10046000682F8BE391E00C94DC01CF93DF93613034
:1004700029F090914A01986090934A0160934E014F
:1004800010924F0190E49093500180935101805C51
:100490008093520180913F010E948700809140012A
:1004A0008F3F11F00E948700809141010E948700D8
:1004B000CBE3D1E09E012B53314080914A0184FD72
:1004C0000AC084E090E02196281739073CF48E8119
:1004D0000E948700EFCF88E090E0F5CF8BE39DE0AE
:1004E0000197F1F760E080913F010E94D30060E046
:1004F000809141010E94D300809140018F3F19F00B
:1005000060E00E94D30080914A0184FD39C063E01D
:100510008BE391E00E94AF01CBE4D6E4CE010197DA
:10052000F1F763E08BE391E00E94AF012197F1F7CF
:1005300063E08BE391E00E94AF0183E592E00197D5
:10054000F1F762E08BE391E00E94AF0180914A01F4
:1005500080620E942F0284E080934B018CE00E9415
:100560002F0281E00E942F028BE39FE10197F1F7B8
:1005700082E080934C0186E0DF91CF910C942F02B2
:1005800080620E942F028BE496E40197F1F780913C
:100590004A0180620E942F0283E592E00197F1F701
:1005A00080914A0180620E942F02D0CF90914E012B
:1005B000691710F06FEF690FE62FF0E0E55CFE4F72
:1005C0009489890F80680C942F0241E00E94DC011D
:1005D00081E090E008951F920F920FB60F921124C0
:1005E0002F933F938F939F93AF93BF93809133014A
:1005F00090913401A0913501B091360130913201D2
:1006000023E0230F2D3758F50196A11DB11D20932E
:1006100032018093330190933401A0933501B0935C
:1006200036018091370190913801A0913901B09144
:100630003A010196A11DB11D8093370190933801B5
:10064000A0933901B0933A01BF91AF919F918F91DF
:100650003F912F910F900FBE0F901F90189526E895
:10066000230F0296A11DB11DD2CF789484B582606C
:1006700084BD84B5816084BD85B5826085BD85B546
:10068000816085BD80916E00816080936E001092C4
:10069000810080918100826080938100809181003F
:1006A00081608093810080918000816080938000D0
:1006B0008091B10084608093B1008091B00081602E
:1006C0008093B00080917A00846080937A0080915A
:1006D0007A00826080937A0080917A0081608093B2
:1006E0007A0080917A00806880937A001092C1002D
:1006F00064E084E10E94350260E080E00E94D6025E
:100700008CE091E00E94480161E080E00E94D60206
:100710008DE191E00E9448010E941F014B015C01A4
:1007200088EEC82E83E0D82EE12CF12C0E941F0108
:10073000681979098A099B09683E7340810591050A
:10074000A8F321E0C21AD108E108F10888EE880E6A
:1007500083E0981EA11CB11CC114D104E104F10472
:1007600029F781E00E942F028BE39FE10197F1F7C7
:1007700010E4C0E0D0E010937C0080917A008064A7
:1007800080937A0080917A0086FDFCCF609178009A
:1007900070917900072E000C880B990B0E94680558
:1007A00020E030E040EA5BE30E941D0620E030E0FC
:1007B00048EC52E40E941D066B017C014B015C0178
:1007C00062E080E00E94D60280E191E00E94480150
:1007D00063E080E00E94D602A7019601C701B6013E
:1007E0000E948A068823E1F084E291E00E94480199
:1007F00063E086E00E94D60241E06FED8BE391E07A
:100800000E94DC0163E087E00E94D60280E391E071
:100810000E944801209709F4AECF0E940000ABCFA0
:1008200026013701E89477F82FEF3FEF4FE75FE7B6
:10083000C301B2010E948A0681110DC02FEF3FEF64
:100840004FE75FE7C301B2010E94320518161CF49E
:1008500088E291E0CBCF2FEF3FEF4FE75FE4C70196
:10086000B6010E94180618161CF48CE291E0BECF67
:100870002FEF3FEF4FE75FECC701B6010E94320553
:1008800087FDF3CF20E030E0A901C701B6010E9447
:10089000320587FF0CC041E06DE28BE391E00E94DE
:1008A000DC0146015701B7FAB094B7F8B0942AE0DA
:1008B00037ED43EA5BE3C501B4010E94C6044B0176
:1008C0005C010E9437056B017C010E9466059B015B
:1008D000AC01C501B4010E94C5044B015C014AE0B2
:1008E000C701B6010E94550141E06EE28BE391E041
:1008F0000E94DC0120E030E040E251E4C501B40197
:100900000E941D064B015C010E9437056B01F12C12
:10091000E12C4AE0C701B6010E945501C701B601AA
:100920000E9466059B01AC01C501B4010E94C5048B
:1009300020E030E040E251E40E941D060E943705AD
:1009400090E080E04AE00E94550152CFEBE3F1E0F5
:100950001382128284E091E0918380838DE084830E
:100960008FEF85838CE086838BE087838AE08087A6
:1009700089E0818788E0828713861486158616862B
:10098000178661E080E10C9435025058BB27AA27F6
:100990000E94DD040C94DE050E94D00538F00E9410
:1009A000D70520F039F49F3F19F426F40C94CD05B7
:1009B0000EF4E095E7FB0C94C705E92F0E94EF05C4
:1009C00058F3BA17620773078407950720F079F484
:1009D000A6F50C9411060EF4E0950B2EBA2FA02D5F
:1009E0000B01B90190010C01CA01A0011124FF27DC
:1009F000591B99F0593F50F4503E68F11A16F040D7
:100A0000A22F232F342F4427585FF3CF46953795D5
:100A10002795A795F0405395C9F77EF41F16BA0B9A
:100A2000620B730B840BBAF09150A1F0FF0FBB1F48
:100A3000661F771F881FC2F70EC0BA0F621F731F91
:100A4000841F48F4879577956795B795F7959E3FEE
:100A500008F0B0CF9395880F08F09927EE0F97957F
:100A6000879508950E94A30508F481E008950E94E7
:100A7000F70588F09F5798F0B92F9927B751B0F034
:100A8000E1F0660F771F881F991F1AF0BA95C9F712
:100A900014C0B13091F00E941106B1E008950C9499
:100AA0001106672F782F8827B85F39F0B93FCCF34C
:100AB000869577956795B395D9F73EF4909580958F
:100AC000709561957F4F8F4F9F4F0895E89409C0AF
:100AD00097FB3EF490958095709561957F4F8F4F71
:100AE0009F4F9923A9F0F92F96E9BB279395F69587
:100AF000879577956795B795F111F8CFFAF4BB0F05
:100B000011F460FF1BC06F5F7F4F8F4F9F4F16C068
:100B1000882311F096E911C0772321F09EE8872FF2
:100B2000762F05C0662371F096E8862F70E060E0AE
:100B30002AF09A95660F771F881FDAF7880F969527
:100B4000879597F90895990F0008550FAA0BE0E8CB
:100B5000FEEF16161706E807F907C0F0121613067F
:100B6000E407F50798F0621B730B840B950B39F4BF
:100B70000A2661F0232B242B252B21F408950A2625
:100B800009F4A140A6958FEF811D811D089597F965
:100B90009F6780E870E060E008959FEF80EC089523
:100BA00000240A941616170618060906089500244C
:100BB0000A9412161306140605060895092E0394C6
:100BC000000C11F4882352F0BB0F40F4BF2B11F43A
:100BD00060FF04C06F5F7F4F8F4F9F4F089557FD99
:100BE0009058440F551F59F05F3F71F04795880F9B
:100BF00097FB991F61F09F3F79F087950895121632
:100C000013061406551FF2CF4695F1DF08C01616DD
:100C100017061806991FF1CF86957105610508948E
:100C20000895E894BB2766277727CB0197F90895A5
:100C30000E94A30508F48FEF08950E9430060C94DB
:100C4000DE050E94D00538F00E94D70520F09523DC
:100C500011F00C94C7050C94CD0511240C941206C8
:100C60000E94EF0570F3959FC1F3950F50E0551F5B
:100C7000629FF001729FBB27F00DB11D639FAA27F1
:100C8000F00DB11DAA1F649F6627B00DA11D661F40
:100C9000829F2227B00DA11D621F739FB00DA11D61
:100CA000621F839FA00D611D221F749F3327A00D1B
:100CB000611D231F849F600D211D822F762F6A2FB7
:100CC00011249F5750409AF0F1F088234AF0EE0F1C
:100CD000FF1FBB1F661F771F881F91505040A9F749
:100CE0009E3F510580F00C94C7050C9412065F3F9F
:100CF000E4F3983ED4F3869577956795B795F79585
:100D0000E7959F5FC1F7FE2B880F911D96958795FC
:100D100097F908950E94A305880B990B0895A1E205
:100D20001A2EAA1BBB1BFD010DC0AA1FBB1FEE1F65
:100D3000FF1FA217B307E407F50720F0A21BB30BB0
:100D4000E40BF50B661F771F881F991F1A9469F72C
:100D500060957095809590959B01AC01BD01CF0188
:100D60000895EE0FFF1F0590F491E02D0994F8947B
:020D7000FFCFB3
:100D720000000000E502A6004501440143454B2066
:100D820053554855205255414E47414E004C414221
:100D9200205449006E616E00696E66006F766600CF
:020DA20043000C
:00000001FF
